[
["The following are deserialized transactions which are valid."],
["They are in the form"],
["[[[prevout hash, prevout index, prevout scriptPubKey], [input 2], ...],"],
["serializedTransaction, verifyFlags]"],
["Objects that are only a single string (like this one) are ignored"],

["The following is c99c49da4c38af669dea436d3e73780dfdb6c1ecf9958baa52960e8baee30e73"],
["It is of interest because it contains a 0-sequence as well as a signature of SIGHASH type 0 (which is not a real type)"],
[[["406b2b06bcd34d3c8733e6b79f7a394c8a431fbf4ff5ac705c93f4076bb77602", 0, "DUP HASH160 0x14 0xdc44b1164188067c3a32d4780f5996fa14a4f2d9 EQUALVERIFY CHECKSIG"]],
"01000000010276b76b07f4935c70acf54fbf1f438a4c397a9fb7e633873c4dd3bc062b6b40000000008c493046022100d23459d03ed7e9511a47d13292d3430a04627de6235b6e51a40f9cd386f2abe3022100e7d25b080f0bb8d8d5f878bba7d54ad2fda650ea8d158a33ee3cbd11768191fd004104b0e2c879e4daf7b9ab68350228c159766676a14f5815084ba166432aab46198d4cca98fa3e9981d0a90b2effc514b76279476550ba3663fdcaff94c38420e9d5000000000100093d00000000001976a9149a7b0f3b80c6baaeedce0a0842553800f832ba1f88ac00000000", "P2SH"],

["A nearly-standard transaction with CHECKSIGVERIFY 1 instead of CHECKSIG"],
[[["0000000000000000000000000000000000000000000000000000000000000100", 0, "DUP HASH160 0x14 0x5b6462475454710f3c22f5fdf0b40704c92f25c3 EQUALVERIFY CHECKSIGVERIFY 1"]],
"01000000010001000000000000000000000000000000000000000000000000000000000000000000006a473044022067288ea50aa799543a536ff9306f8e1cba05b9c6b10951175b924f96732555ed022026d7b5265f38d21541519e4a1e55044d5b9e17e15cdbaf29ae3792e99e883e7a012103ba8c8b86dea131c22ab967e6dd99bdae8eff7a1f75a2c35f1f944109e3fe5e22ffffffff010000000000000000015100000000", "P2SH"],

["An invalid P2SH Transaction"],
[[["0000000000000000000000000000000000000000000000000000000000000100", 0, "HASH160 0x14 0x7a052c840ba73af26755de42cf01cc9e0a49fef0 EQUAL"]],
"010000000100010000000000000000000000000000000000000000000000000000000000000000000009085768617420697320ffffffff010000000000000000015100000000", "NONE"],

["A valid P2SH Transaction using the standard transaction type put forth in BIP 16"],
[[["0000000000000000000000000000000000000000000000000000000000000100", 0, "HASH160 0x14 0x8febbed40483661de6958d957412f82deed8e2f7 EQUAL"]],
"01000000010001000000000000000000000000000000000000000000000000000000000000000000006e493046022100c66c9cdf4c43609586d15424c54707156e316d88b0a1534c9e6b0d4f311406310221009c0fe51dbc9c4ab7cc25d3fdbeccf6679fe6827f08edf2b4a9f16ee3eb0e438a0123210338e8034509af564c62644c07691942e0c056752008a173c89f60ab2a88ac2ebfacffffffff010000000000000000015100000000", "P2SH"],

["Tests for CheckTransaction()"],
["MAX_MONEY output"],
[[["0000000000000000000000000000000000000000000000000000000000000100", 0, "HASH160 0x14 0x32afac281462b822adbec5094b8d4d337dd5bd6a EQUAL"]],
"01000000010001000000000000000000000000000000000000000000000000000000000000000000006e493046022100e1eadba00d9296c743cb6ecc703fd9ddc9b3cd12906176a226ae4c18d6b00796022100a71aef7d2874deff681ba6080f1b278bac7bb99c61b08a85f4311970ffe7f63f012321030c0588dc44d92bdcbf8e72093466766fdc265ead8db64517b0c542275b70fffbacffffffff010040075af0750700015100000000", "P2SH"],

["MAX_MONEY output + 0 output"],
[[["0000000000000000000000000000000000000000000000000000000000000100", 0, "HASH160 0x14 0xb558cbf4930954aa6a344363a15668d7477ae716 EQUAL"]],
"01000000010001000000000000000000000000000000000000000000000000000000000000000000006d483045022027deccc14aa6668e78a8c9da3484fbcd4f9dcc9bb7d1b85146314b21b9ae4d86022100d0b43dece8cfb07348de0ca8bc5b86276fa88f7f2138381128b7c36ab2e42264012321029bb13463ddd5d2cc05da6e84e37536cb9525703cfd8f43afdb414988987a92f6acffffffff020040075af075070001510000000000000000015100000000", "P2SH"],

["Coinbase of size 2"],
["Note the input is just required to make the tester happy"],
[[["0000000000000000000000000000000000000000000000000000000000000000", -1, "1"]],
"01000000010000000000000000000000000000000000000000000000000000000000000000ffffffff025151ffffffff010000000000000000015100000000", "P2SH"],

["Coinbase of size 100"],
["Note the input is just required to make the tester happy"],
[[["0000000000000000000000000000000000000000000000000000000000000000", -1, "1"]],
"01000000010000000000000000000000000000000000000000000000000000000000000000ffffffff6451515151515151515151515151515151515151515151515151515151515151515151515151515151515151515151515151515151515151515151515151515151515151515151515151515151515151515151515151515151515151515151515151515151ffffffff010000000000000000015100000000", "P2SH"],

["Simple transaction with first input is signed with SIGHASH_ALL, second with SIGHASH_ANYONECANPAY"],
[[["0000000000000000000000000000000000000000000000000000000000000100", 0, "0x21 0x035e7f0d4d0841bcd56c39337ed086b1a633ee770c1ffdd94ac552a95ac2ce0efc CHECKSIG"],
  ["0000000000000000000000000000000000000000000000000000000000000200", 0, "0x21 0x035e7f0d4d0841bcd56c39337ed086b1a633ee770c1ffdd94ac552a95ac2ce0efc CHECKSIG"]],
 "010000000200010000000000000000000000000000000000000000000000000000000000000000000049483045022100d180fd2eb9140aeb4210c9204d3f358766eb53842b2a9473db687fa24b12a3cc022079781799cd4f038b85135bbe49ec2b57f306b2bb17101b17f71f000fcab2b6fb01ffffffff0002000000000000000000000000000000000000000000000000000000000000000000004847304402205f7530653eea9b38699e476320ab135b74771e1c48b81a5d041e2ca84b9be7a802200ac8d1f40fb026674fe5a5edd3dea715c27baa9baca51ed45ea750ac9dc0a55e81ffffffff010100000000000000015100000000", "P2SH"],

["Same as above, but we change the sequence number of the first input to check that SIGHASH_ANYONECANPAY is being followed"],
[[["0000000000000000000000000000000000000000000000000000000000000100", 0, "0x21 0x035e7f0d4d0841bcd56c39337ed086b1a633ee770c1ffdd94ac552a95ac2ce0efc CHECKSIG"],
  ["0000000000000000000000000000000000000000000000000000000000000200", 0, "0x21 0x035e7f0d4d0841bcd56c39337ed086b1a633ee770c1ffdd94ac552a95ac2ce0efc CHECKSIG"]],
 "01000000020001000000000000000000000000000000000000000000000000000000000000000000004948304502203a0f5f0e1f2bdbcd04db3061d18f3af70e07f4f467cbc1b8116f267025f5360b022100c792b6e215afc5afc721a351ec413e714305cb749aae3d7fee76621313418df101010000000002000000000000000000000000000000000000000000000000000000000000000000004847304402205f7530653eea9b38699e476320ab135b74771e1c48b81a5d041e2ca84b9be7a802200ac8d1f40fb026674fe5a5edd3dea715c27baa9baca51ed45ea750ac9dc0a55e81ffffffff010100000000000000015100000000", "P2SH"],

["afd9c17f8913577ec3509520bd6e5d63e9c0fd2a5f70c787993b097ba6ca9fae which has several SIGHASH_SINGLE signatures"],
[[["63cfa5a09dc540bf63e53713b82d9ea3692ca97cd608c384f2aa88e51a0aac70", 0, "DUP HASH160 0x14 0xdcf72c4fd02f5a987cf9b02f2fabfcac3341a87d EQUALVERIFY CHECKSIG"],
 ["04e8d0fcf3846c6734477b98f0f3d4badfb78f020ee097a0be5fe347645b817d", 1, "DUP HASH160 0x14 0xdcf72c4fd02f5a987cf9b02f2fabfcac3341a87d EQUALVERIFY CHECKSIG"],
 ["ee1377aff5d0579909e11782e1d2f5f7b84d26537be7f5516dd4e43373091f3f", 1, "DUP HASH160 0x14 0xdcf72c4fd02f5a987cf9b02f2fabfcac3341a87d EQUALVERIFY CHECKSIG"]],
 "010000000370ac0a1ae588aaf284c308d67ca92c69a39e2db81337e563bf40c59da0a5cf63000000006a4730440220360d20baff382059040ba9be98947fd678fb08aab2bb0c172efa996fd8ece9b702201b4fb0de67f015c90e7ac8a193aeab486a1f587e0f54d0fb9552ef7f5ce6caec032103579ca2e6d107522f012cd00b52b9a65fb46f0c57b9b8b6e377c48f526a44741affffffff7d815b6447e35fbea097e00e028fb7dfbad4f3f0987b4734676c84f3fcd0e804010000006b483045022100c714310be1e3a9ff1c5f7cacc65c2d8e781fc3a88ceb063c6153bf950650802102200b2d0979c76e12bb480da635f192cc8dc6f905380dd4ac1ff35a4f68f462fffd032103579ca2e6d107522f012cd00b52b9a65fb46f0c57b9b8b6e377c48f526a